:020000040000FA
:100000000C9461000C9473000C9473000C947300B6
:100010000C9473000C9473000C9473000C94730094
:100020000C9473000C9473000C9473000C94730084
:100030000C9473000C9473000C9473000C94730074
:100040000C94DD010C9473000C9473000C947300F9
:100050000C9473000C9473000C9473000C94730054
:100060000C9473000C94730000000000240027001F
:100070002A0000000000250028002B0000000000DE
:1000800023002600290004040404040404040202DA
:100090000202020203030303030301020408102007
:1000A0004080010204081020010204081020000012
:1000B0000008000201000003040700000000000027
:1000C000000011241FBECFEFD8E0DEBFCDBF21E07E
:1000D000A0E0B1E001C01D92A931B207E1F70E9492
:1000E00027020C94E1050C940000833081F028F481
:1000F000813099F08230A9F008958730A9F08830D6
:10010000C9F08430B1F4809180008F7D03C080916C
:1001100080008F7780938000089584B58F7784BDA9
:10012000089584B58F7DFBCF8091B0008F77809349
:10013000B00008958091B0008F7DF9CFCF93DF9309
:10014000282F30E0F901E255FF4F8491F901E6567E
:10015000FF4FD491F901EA57FF4FC491CC23A1F08E
:1001600081110E947500EC2FF0E0EE0FFF1FE458A4
:10017000FF4FA591B491EC91ED2381E090E009F45B
:1001800080E0DF91CF91089580E090E0FACF1F9357
:10019000CF93DF93282F30E0F901E255FF4F849190
:1001A000F901E656FF4FD491F901EA57FF4FC49188
:1001B000CC23A9F0162F81110E947500EC2FF0E0DE
:1001C000EE0FFF1FEE58FF4FA591B4918FB7F89433
:1001D000EC91111108C0D095DE23DC938FBFDF9125
:1001E000CF911F910895DE2BF8CFCF93DF9390E04E
:1001F000FC01E656FF4F24918A579F4FFC018491E2
:100200008823D1F090E0880F991FFC01E859FF4F37
:10021000A591B491FC01EE58FF4FC591D4916111A5
:100220000EC09FB7F8948C91E22FE0958E238C93AB
:100230002881E223E8839FBFDF91CF9108958FB794
:10024000F894EC91E22BEC938FBFF6CF1F93CF93F2
:10025000DF93182FEB0161E00E94F500209739F43D
:1002600060E0812FDF91CF911F910C94C700CF3FA9
:10027000D10511F461E0F5CFE12FF0E0E255FF4F39
:10028000E491E33031F140F4E130B1F0E230E1F0FB
:10029000C038D1057CF7E4CFE73029F1E83059F1D7
:1002A000E430B1F780918000806280938000D09329
:1002B0008B00C0938A0004C084B5806884BDC7BD2C
:1002C000DF91CF911F91089584B5806284BDC8BD30
:1002D000F7CF80918000806880938000D093890060
:1002E000C0938800EDCF8091B00080688093B0000B
:1002F000C093B300E5CF8091B00080628093B000DE
:10030000C093B400DDCF3FB7F89480910501909180
:100310000601A0910701B091080126B5A89B05C070
:100320002F3F19F00196A11DB11D3FBFBA2FA92F74
:10033000982F8827BC01CD01620F711D811D911D71
:1003400042E0660F771F881F991F4A95D1F70895DD
:100350000F931F93CF93DF938C01EB0197FF1CC08A
:1003600070E060E085E00E94260166277727601B29
:10037000710B83E00E9426011C161D06A4F470E098
:1003800060E086E00E942601BE0189E0DF91CF9106
:100390001F910F910C942601BC0185E00E9426015B
:1003A00070E060E0E6CF662777276C1B7D0B86E068
:1003B0000E94260170E060E0E8CF1F920F920FB616
:1003C0000F9211242F933F938F939F93AF93BF93DB
:1003D0008091010190910201A0910301B09104016B
:1003E0003091000123E0230F2D3758F50196A11D10
:1003F000B11D209300018093010190930201A0930D
:100400000301B09304018091050190910601A09130
:100410000701B09108010196A11DB11D809305014E
:1004200090930601A0930701B0930801BF91AF918B
:100430009F918F913F912F910F900FBE0F901F9022
:10044000189526E8230F0296A11DB11DD2CFCF9398
:10045000DF93CDB7DEB72E970FB6F894DEBF0FBE91
:10046000CDBF789484B5826084BD84B5816084BD3D
:1004700085B5826085BD85B5816085BD80916E0042
:10048000816080936E001092810080918100826073
:1004900080938100809181008160809381008091B0
:1004A00080008160809380008091B100846080939F
:1004B000B1008091B00081608093B00080917A009B
:1004C000846080937A0080917A00826080937A00C1
:1004D00080917A00816080937A0080917A008068B0
:1004E00080937A001092C10060E084E00E94F500E1
:1004F00060E088E00E94F50060E08AE00E94F5007C
:1005000060E08BE00E94F50060E087E00E94F5006B
:1005100061E083E00E94F50061E085E00E94F50063
:1005200061E086E00E94F50061E089E00E94F5004C
:1005300070E060E083E00E94260170E060E085E00A
:100540000E94260170E060E086E00E94260170E0D3
:1005500060E089E00E94260132E0232E312C01E088
:1005600010E00E9483014B015C0124E0C22ED12CDB
:10057000E12CF12C0E948301681979098A099B09F1
:10058000683E734081059105A8F321E0C21AD108A5
:10059000E108F10888EE880E83E0981EA11CB11CCA
:1005A000C114D104E104F10429F784E00E949E0003
:1005B0009A83898388E00E949E009C838B838AE0D3
:1005C0000E949E009E838D838BE00E949E009887F0
:1005D0008F8387E00E949E009A878987DE011196AB
:1005E000F0E0E0E090E080E02D913D912130310598
:1005F00041F4082E02C0220F331F0A94E2F7E20FE3
:10060000F31F01968530910579F731971092180103
:1006100010921701EF31F10508F027C0EE5EFC4F94
:100620000C94DB05F903F403F90331033503F403F8
:10063000F903FE03350335033503FE0335033503A4
:100640003503050435033503350335033503350319
:100650003503050435033503350305043503350338
:100660003103109216011092150123E333E343E3A3
:100670005FE36091110170911201809113019091DB
:1006800014010E946E056B017C016091150170914F
:100690001601072E000C880B990B0E94B9042AE959
:1006A00039E949E95EE30E946E059B01AC01C7018F
:1006B000B6010E9410044B015C01809211019092DE
:1006C0001201A0921301B092140120910D013091FA
:1006D0000E0140910F01509110010E940F046B8791
:1006E0007C878D879E872091090130910A01409176
:1006F0000B0150910C01C501B4010E9410046B0163
:100700007C0120E030E048E452EC0E947C0487FD4C
:100710007FC020E030E048E452E4C701B6010E9407
:100720006905181634F4C12CD12C98E4E92E92E412
:10073000F92EC0920901D0920A01E0920B01F092C9
:100740000C0120E030E040E252E4C501B4010E9417
:100750006E052B013C0126E636E646EE5EE3C70158
:10076000B6010E946E059B01AC01C301B2010E945B
:1007700010046B017C0120E030E04AE754E46B8513
:100780007C858D859E850E946E059B01AC01C7010D
:10079000B6010E9410046B017C0180920D019092C1
:1007A0000E01A0920F01B092100120E030E04AEA61
:1007B00052E40E9410040E9481044B01A70196019B
:1007C00060E070E08AEA92E40E940F040E948104D3
:1007D000CB01B4010E94A80180E090E0892B09F4CC
:1007E000C0CE0E940000BDCE1093160100931501EB
:1007F0003CCF309216012092150137CF8FEF9FEF3B
:10080000909316018093150130CF8EEF9FEFF8CFB4
:10081000C12CD12C88E4E82E82ECF82E8ACF5058D7
:10082000BB27AA270E9427040C942F050E942105AC
:1008300038F00E94280520F039F49F3F19F426F47F
:100840000C941E050EF4E095E7FB0C941805E92FB7
:100850000E94400558F3BA1762077307840795078B
:1008600020F079F4A6F50C9462050EF4E0950B2EB9
:10087000BA2FA02D0B01B90190010C01CA01A001F2
:100880001124FF27591B99F0593F50F4503E68F14D
:100890001A16F040A22F232F342F4427585FF3CF8E
:1008A000469537952795A795F0405395C9F77EF45F
:1008B0001F16BA0B620B730B840BBAF09150A1F0A8
:1008C000FF0FBB1F661F771F881FC2F70EC0BA0F2E
:1008D000621F731F841F48F4879577956795B795B6
:1008E000F7959E3F08F0B0CF9395880F08F09927B1
:1008F000EE0F9795879508950E94F40408F481E01F
:1009000008950E9488046894B1110C9463050895B9
:100910000E94480588F09F5798F0B92F9927B75142
:10092000B0F0E1F0660F771F881F991F1AF0BA9593
:10093000C9F714C0B13091F00E946205B1E008958A
:100940000C946205672F782F8827B85F39F0B93F7C
:10095000CCF3869577956795B395D9F73EF4909546
:100960008095709561957F4F8F4F9F4F0895E894C4
:1009700009C097FB3EF490958095709561957F4FE7
:100980008F4F9F4F9923A9F0F92F96E9BB27939595
:10099000F695879577956795B795F111F8CFFAF4A5
:1009A000BB0F11F460FF1BC06F5F7F4F8F4F9F4FD6
:1009B00016C0882311F096E911C0772321F09EE834
:1009C000872F762F05C0662371F096E8862F70E09A
:1009D00060E02AF09A95660F771F881FDAF7880F74
:1009E0009695879597F90895990F0008550FAA0BCA
:1009F000E0E8FEEF16161706E807F907C0F0121632
:100A00001306E407F50798F0621B730B840B950B34
:100A100039F40A2661F0232B242B252B21F4089589
:100A20000A2609F4A140A6958FEF811D811D089526
:100A300097F99F6780E870E060E008959FEF80EC91
:100A4000089500240A941616170618060906089534
:100A500000240A9412161306140605060895092E9A
:100A60000394000C11F4882352F0BB0F40F4BF2B09
:100A700011F460FF04C06F5F7F4F8F4F9F4F089549
:100A800057FD9058440F551F59F05F3F71F047953F
:100A9000880F97FB991F61F09F3F79F08795089524
:100AA000121613061406551FF2CF4695F1DF08C043
:100AB000161617061806991FF1CF86957105610560
:100AC00008940895E894BB2766277727CB0197F908
:100AD00008950E94F40408F48FEF08950E948105A0
:100AE0000C942F050E94210538F00E94280520F063
:100AF000952311F00C9418050C941E0511240C94E8
:100B000063050E94400570F3959FC1F3950F50E077
:100B1000551F629FF001729FBB27F00DB11D639FAF
:100B2000AA27F00DB11DAA1F649F6627B00DA11D55
:100B3000661F829F2227B00DA11D621F739FB00DFB
:100B4000A11D621F839FA00D611D221F749F33276B
:100B5000A00D611D231F849F600D211D822F762F04
:100B60006A2F11249F5750409AF0F1F088234AF0E1
:100B7000EE0FFF1FBB1F661F771F881F915050404D
:100B8000A9F79E3F510580F00C9418050C9463055D
:100B90005F3FE4F3983ED4F3869577956795B795D4
:100BA000F795E7959F5FC1F7FE2B880F911D9695EE
:100BB000879597F90895EE0FFF1F0590F491E02DAA
:060BC0000994F894FFCF38
:107E0000112484B714BE81FFF0D085E080938100F7
:107E100082E08093C00088E18093C10086E0809377
:107E2000C20080E18093C4008EE0C9D0259A86E02C
:107E300020E33CEF91E0309385002093840096BBD3
:107E4000B09BFECF1D9AA8958150A9F7CC24DD24C4
:107E500088248394B5E0AB2EA1E19A2EF3E0BF2EE7
:107E6000A2D0813461F49FD0082FAFD0023811F036
:107E7000013811F484E001C083E08DD089C08234E0
:107E800011F484E103C0853419F485E0A6D080C0E4
:107E9000853579F488D0E82EFF2485D0082F10E0AE
:107EA000102F00270E291F29000F111F8ED06801E7
:107EB0006FC0863521F484E090D080E0DECF843638
:107EC00009F040C070D06FD0082F6DD080E0C81688
:107ED00080E7D80618F4F601B7BEE895C0E0D1E017
:107EE00062D089930C17E1F7F0E0CF16F0E7DF06D8
:107EF00018F0F601B7BEE89568D007B600FCFDCFD4
:107F0000A601A0E0B1E02C9130E011968C91119780
:107F100090E0982F8827822B932B1296FA010C0160
:107F200087BEE89511244E5F5F4FF1E0A038BF0790
:107F300051F7F601A7BEE89507B600FCFDCF97BE46
:107F4000E89526C08437B1F42ED02DD0F82E2BD052
:107F50003CD0F601EF2C8F010F5F1F4F84911BD097
:107F6000EA94F801C1F70894C11CD11CFA94CF0C13
:107F7000D11C0EC0853739F428D08EE10CD085E9AC
:107F80000AD08FE07ACF813511F488E018D01DD067
:107F900080E101D065CF982F8091C00085FFFCCF94
:107FA0009093C60008958091C00087FFFCCF809118
:107FB000C00084FD01C0A8958091C6000895E0E648
:107FC000F0E098E1908380830895EDDF803219F02E
:107FD00088E0F5DFFFCF84E1DECF1F93182FE3DFCA
:107FE0001150E9F7F2DF1F91089580E0E8DFEE27F6
:047FF000FF270994CA
:027FFE00040479
:00000001FF
