:020000040000FA
:100000000C945D000C9485000C9485000C94850084
:100010000C9485000C9485000C9485000C9485004C
:100020000C9485000C9485000C9485000C9485003C
:100030000C9485000C9485000C9485000C9485002C
:100040000C949F030C9485000C946D030C9447034F
:100050000C9485000C9485000C9485000C9485000C
:100060000C9485000C9485000000000024002700FB
:100070002A0000000000250028002B0004040404CE
:100080000404040402020202020203030303030342
:10009000010204081020408001020408102001021F
:1000A00004081020000000080002010000030407FB
:1000B0000000000000000000350511241FBECFEF36
:1000C000D8E0DEBFCDBF21E0AEE3B1E001C01D92BC
:1000D000A83EB207E1F711E0A0E0B1E0EAE7FFE0F7
:1000E00002C005900D92AE33B107D9F710E0CDE50F
:1000F000D0E004C02197FE010E94C305CC35D10792
:10010000C9F70E94E9030C94BB070C940000AF925E
:10011000BF92CF92DF92EF92FF920F931F93CF93F4
:10012000DF936C017B018B01040F151FEB015E0156
:10013000AE18BF08C017D10759F06991D601ED91EB
:10014000FC910190F081E02DC6010995892B79F78A
:10015000C501DF91CF911F910F91FF90EF90DF903C
:10016000CF90BF90AF900895CF93DF93FC0144816F
:1001700055816081718187E491E00E948700EC01E4
:1001800042E050E068E171E087E491E00E9487007E
:100190008C0F9D1FDF91CF910895FC01538D448DED
:1001A000252F30E0842F90E0821B930B541710F022
:1001B000CF96089501970895FC01918D828D98172F
:1001C00061F0A28DAE0FBF2FB11D5D968C91928D07
:1001D0009F5F9F73928F90E008958FEF9FEF089538
:1001E000FC01918D828D981731F0828DE80FF11D01
:1001F000858D90E008958FEF9FEF0895FC01918D1C
:10020000228D892F90E0805C9F4F821B91098F7314
:100210009927089587E491E00E94FE0021E0892B50
:1002200009F420E0822F089580E090E0892B29F0E6
:100230000E940A0181110C9400000895FC01A48D14
:10024000A80FB92FB11DA35ABF4F2C91848D90E0F8
:1002500001968F739927848FA689B7892C93A089DB
:10026000B1898C91837080648C93938D848D981365
:1002700006C00288F389E02D80818F7D80830895F8
:10028000EF92FF920F931F93CF93DF93EC0181E0E6
:10029000888F9B8D8C8D98131AC0E889F98980818D
:1002A00085FF15C09FB7F894EE89FF896083E889C0
:1002B000F98980818370806480839FBF81E090E0B2
:1002C000DF91CF911F910F91FF90EF900895F62E3F
:1002D0000B8D10E00F5F1F4F0F731127E02E8C8DD9
:1002E0008E110CC00FB607FCFACFE889F98980811E
:1002F00085FFF5CFCE010E941E01F1CFEB8DEC0FF3
:10030000FD2FF11DE35AFF4FF0829FB7F8940B8F3A
:10031000EA89FB8980818062CFCFCF93DF93EC01A4
:10032000888D8823B9F0AA89BB89E889F9898C91DD
:1003300085FD03C0808186FD0DC00FB607FCF7CF99
:100340008C9185FFF2CF808185FFEDCFCE010E9499
:100350001E01E9CFDF91CF91089590E0FC01EC55AB
:10036000FF4F2491FC01E057FF4F3491FC01E4580A
:10037000FF4FE491EE23C9F0222339F0233001F13D
:10038000A8F4213019F1223029F1F0E0EE0FFF1F1F
:10039000EE58FF4FA591B4918FB7F894EC9161118D
:1003A00026C030953E233C938FBF08952730A9F097
:1003B0002830C9F0243049F7809180008F7D03C038
:1003C000809180008F7780938000DFCF84B58F7716
:1003D00084BDDBCF84B58F7DFBCF8091B0008F775C
:1003E0008093B000D2CF8091B0008F7DF9CF3E2BAB
:1003F000DACFCF93DF9390E0FC01E057FF4F2491D9
:1004000084589F4FFC0184918823D1F090E0880F9D
:10041000991FFC01E859FF4FA591B491FC01EE58DA
:10042000FF4FC591D49161110EC09FB7F8948C9184
:10043000E22FE0958E238C932881E223E8839FBFEF
:10044000DF91CF9108958FB7F894EC91E22BEC9364
:100450008FBFF6CF8E50806480937C0080917A00AD
:10046000806480937A0080917A0086FDFCCF809131
:1004700078009091790008953FB7F89480914301F6
:1004800090914401A0914501B091460126B5A89BE9
:1004900005C02F3F19F00196A11DB11D3FBFBA2F16
:1004A000A92F982F8827BC01CD01620F711D811DD6
:1004B000911D42E0660F771F881F991F4A95D1F75B
:1004C00008958F929F92AF92BF92CF92DF92EF9258
:1004D000FF924B015C010E943C026B017C010E9477
:1004E0003C026C197D098E099F09683E73408105A5
:1004F0009105A8F321E0821A9108A108B10888EEBD
:10050000C80E83E0D81EE11CF11C81149104A104E3
:10051000B10429F7FF90EF90DF90CF90BF90AF909C
:100520009F908F900895FC0180819181009711F038
:100530000C94650608950F931F93CF93DF93EC01FE
:1005400088819981009759F02A813B8126173707C6
:1005500030F081E0DF91CF911F910F9108958B01D1
:100560006F5F7F4F0E94EE06009759F09983888352
:100570001B830A832C813D81232B59F7FC011082B8
:10058000E8CF80E0E7CFCF92DF92EF92FF920F9318
:100590001F93CF93DF9300D000D000D01F92CDB730
:1005A000DEB78C01CB014AE09E012F5F3F4F69010E
:1005B000B9010E946205F60101900020E9F7319728
:1005C000EC19FD09D9F0D8011496ED90FC90EE0ECF
:1005D000FF1EB701C8010E949B02F80120813181F2
:1005E0008823E1F084819581B601820F931F0E94D8
:1005F000B407D8011596FC92EE921497C80127967D
:100600000FB6F894DEBF0FBECDBFDF91CF911F9123
:100610000F91FF90EF90DF90CF9008952115310555
:1006200019F0C9010E946506F80111821082158235
:10063000148213821282E2CFEF92FF920F931F93E4
:10064000CF93DF93EC017B018A01BA010E949B02E8
:1006500028813981811114C02115310519F0C90192
:100660000E946506198218821D821C821B821A82D2
:10067000CE01DF91CF911F910F91FF90EF900895E0
:100680001D830C83B701C9010E94B407F1CF1F92EB
:100690000F920FB60F9211242F933F934F935F93B6
:1006A0006F937F938F939F93AF93BF93EF93FF933A
:1006B00087E491E00E941E01FF91EF91BF91AF91FD
:1006C0009F918F917F916F915F914F913F912F916A
:1006D0000F900FBE0F901F9018951F920F920FB69C
:1006E0000F9211242F938F939F93EF93FF93E09199
:1006F0005701F09158018081E0915D01F0915E0118
:1007000082FD1BC09081809160018F5F8F7320916B
:100710006101821741F0E0916001F0E0E95BFE4F7A
:10072000958F80936001FF91EF919F918F912F9111
:100730000F900FBE0F901F9018958081F4CF1F92DD
:100740000F920FB60F9211242F933F938F939F9385
:10075000AF93BF9380913F0190914001A0914101DF
:10076000B091420130913E0123E0230F2D3758F51F
:100770000196A11DB11D20933E0180933F019093EE
:100780004001A0934101B0934201809143019091B7
:100790004401A0914501B09146010196A11DB11DF2
:1007A0008093430190934401A0934501B093460187
:1007B000BF91AF919F918F913F912F910F900FBE5D
:1007C0000F901F90189526E8230F0296A11DB11DCA
:1007D000D2CFCF93DF93CDB7DEB72C970FB6F89477
:1007E000DEBF0FBECDBF789484B5826084BD84B572
:1007F000816084BD85B5826085BD85B5816085BD1C
:1008000080916E00816080936E00109281008091D3
:10081000810082608093810080918100816080935B
:100820008100809180008160809380008091B10080
:1008300084608093B1008091B00081608093B000AB
:1008400080917A00846080937A0080917A0082603F
:1008500080937A0080917A00816080937A00809101
:100860007A00806880937A001092C10060E08EE088
:100870000E94F90160E08FE00E94F90161E083E0ED
:100880000E94F90161E084E00E94F901E0915701C2
:10089000F091580182E08083E0915301F09154017E
:1008A0001082E0915501F09156018FEC80831092F7
:1008B0005F01E0915B01F0915C0186E08083E09153
:1008C0005901F0915A01808180618083E091590142
:1008D000F0915A01808188608083E0915901F09104
:1008E0005A01808180688083E0915901F0915A011A
:1008F00080818F7D808380E0C82E80E0D82E8EE0BE
:100900000E942A028C018FE00E942A027C01188634
:100910001F821A8619861C861B864BE050E06BE10D
:1009200071E0CE0107960E941C031A8219821C8274
:100930001B821E821D826F8178856115710531F0E1
:100940004B855C85CE0101960E941C03B801CE0147
:1009500001960E94C3020E94B400CE0101960E943B
:100960009302CE0107960E94930218861F821A8670
:1009700019861C861B8645E150E067E271E0CE01D6
:1009800007960E941C031A8219821C821B821E82F7
:100990001D826F8178856115710531F04B855C850D
:1009A000CE0101960E941C03B701CE0101960E9460
:1009B000C3020E94B400CE0101960E949302CE01B0
:1009C00007960E94930289EEE81683E0F806F0F09D
:1009D000083E134008F040C061E083E00E94AD0192
:1009E00060E084E00E94AD0168EE73E080E090E09A
:1009F0000E946102C114D10409F481CF0E940A014E
:100A0000882309F47CCF0E94000079CF88EEE81695
:100A100083E0F80609F1093E83E0180768F060E01A
:100A200083E00E94AD0161E084E00E94AD0160EDD1
:100A300077E080E090E0DCCF083E134069F060E0B2
:100A400083E00E94AD0160E084E00E94AD0168EBAC
:100A50007BE080E090E0CCCF61E083E00E94AD01DC
:100A600061E084E00E94AD01C5CFE7E4F1E01382CC
:100A7000128288EE93E0A0E0B0E084839583A683A1
:100A8000B7838AE091E09183808385EC90E095873D
:100A9000848784EC90E09787868780EC90E0918B48
:100AA000808B81EC90E0938B828B82EC90E0958B35
:100AB000848B86EC90E0978B868B118E128E138E32
:100AC000148E0895BB27FB015527AA27880F991F6D
:100AD000AA1FA41710F0A41B83955051B9F7A05D6D
:100AE000AA3308F0A95DA193009779F7B111B193EA
:100AF0001192CB010C947C05DC01FC01672F7191F4
:100B00007723E1F7329704C07C916D9370836291F3
:100B1000AE17BF07C8F308952F923F924F925F928E
:100B20006F927F928F929F92AF92BF92CF92DF92FD
:100B3000EF92FF920F931F93CF93DF93CDB7DEB762
:100B4000CA1BDB0B0FB6F894DEBF0FBECDBF0994F6
:100B50002A88398848885F846E847D848C849B844D
:100B6000AA84B984C884DF80EE80FD800C811B815B
:100B7000AA81B981CE0FD11D0FB6F894DEBF0FBE8A
:100B8000CDBFED010895EE0FFF1F0590F491E02D0C
:100B900009940F931F93CF93DF938230910510F444
:100BA00082E090E0E091E601F091E70130E020E0A2
:100BB000B0E0A0E0309799F42115310509F44AC05E
:100BC000281B390B24303105D8F58A819B816115AA
:100BD000710589F1FB0193838283FE0111C040817D
:100BE00051810281138148175907E0F048175907CE
:100BF00099F4109761F012960C93129713961C9328
:100C00003296CF01DF91CF911F910F9108950093FC
:100C1000E6011093E701F4CF2115310551F0421799
:100C2000530738F0A901DB019A01BD01DF01F8018A
:100C3000C1CFEF01F9CF9093E7018093E601CDCFCB
:100C4000FE01E20FF31F8193919322503109398302
:100C50002883D7CF2091E4013091E501232B41F483
:100C600020910201309103013093E5012093E401CA
:100C700020910001309101012115310541F42DB77A
:100C80003EB74091040150910501241B350BE091C2
:100C9000E401F091E501E217F307A0F42E1B3F0BEE
:100CA0002817390778F0AC014E5F5F4F24173507DE
:100CB00048F04E0F5F1F5093E5014093E40181938C
:100CC00091939FCFF0E0E0E09CCFCF93DF9300972C
:100CD000E9F0FC01329713821282A091E601B091F3
:100CE000E701ED0130E020E01097A1F4208131818F
:100CF000820F931F2091E4013091E50128173907F5
:100D000009F061C0F093E501E093E401DF91CF9138
:100D10000895EA01CE17DF07E8F54A815B819E015D
:100D200041155105B1F7E901FB83EA8349915991D6
:100D3000C40FD51FEC17FD0761F4808191810296E5
:100D4000840F951FE90199838883828193819B8316
:100D50008A83F0E0E0E012968D919C9113970097C2
:100D6000B9F52D913C911197CD010296820F931FF9
:100D70002091E4013091E5012817390739F63097C1
:100D800051F51092E7011092E601B093E501A093AE
:100D9000E401BCCFD383C28340815181840F951F6E
:100DA000C817D90761F44E5F5F4F88819981480F5A
:100DB000591F518340838A819B81938382832115AC
:100DC000310509F0B0CFF093E701E093E6019ECF43
:100DD000FD01DC01C0CF13821282D7CFB0E0A0E0CA
:100DE000E4EFF6E00C948E058C01009751F4CB01F2
:100DF0000E94C9058C01C801CDB7DEB7E0E10C94B3
:100E0000AA05FC01E60FF71F9C0122503109E217E9
:100E1000F30708F49DC0D901CD91DC911197C61755
:100E2000D70798F0C530D10530F3CE010497861767
:100E3000970708F3C61BD70B2297C193D1936D93E5
:100E40007C93CF010E946506D6CF5B01AC1ABD0A28
:100E50004C018C0E9D1EA091E601B091E701512C32
:100E6000412CF12CE12C109731F58091E401909107
:100E7000E5018815990509F05CC04616570608F08B
:100E800058C08091000190910101009741F48DB705
:100E90009EB74091040150910501841B950BE81702
:100EA000F90708F055C0F093E501E093E401F9017A
:100EB00071836083A0CF8D919C91119712966C9055
:100EC000129713967C901397A815B90559F56C01E4
:100ED00042E0C40ED11CCA14DB0420F1AC014A1953
:100EE0005B09DA011296159780F062827382518352
:100EF0004083D9016D937C93E114F10471F0D70123
:100F00001396FC93EE93129776CF22968C0F9D1F2B
:100F1000F90191838083F301EFCFF093E701E09330
:100F2000E60169CF4816590608F42C017D01D3016A
:100F30009ACFCB010E94C9057C01009749F0AE0110
:100F4000B8010E94AB07C8010E946506870153CF14
:100F500010E000E050CFFB01DC0102C001900D92D7
:100F600041505040D8F70895FB01DC0101900D92EB
:100F70000020E1F70895F894FFCF0000E801800019
:100F80000000000040018700CD008D01FE00DC0064
:100F9000F0000D0A004C44522076616C75653A20D1
:100FA00000506F74656E74696F6D6574657220763C
:080FB000616C75653A20000038
:107E0000112484B714BE81FFF0D085E080938100F7
:107E100082E08093C00088E18093C10086E0809377
:107E2000C20080E18093C4008EE0C9D0259A86E02C
:107E300020E33CEF91E0309385002093840096BBD3
:107E4000B09BFECF1D9AA8958150A9F7CC24DD24C4
:107E500088248394B5E0AB2EA1E19A2EF3E0BF2EE7
:107E6000A2D0813461F49FD0082FAFD0023811F036
:107E7000013811F484E001C083E08DD089C08234E0
:107E800011F484E103C0853419F485E0A6D080C0E4
:107E9000853579F488D0E82EFF2485D0082F10E0AE
:107EA000102F00270E291F29000F111F8ED06801E7
:107EB0006FC0863521F484E090D080E0DECF843638
:107EC00009F040C070D06FD0082F6DD080E0C81688
:107ED00080E7D80618F4F601B7BEE895C0E0D1E017
:107EE00062D089930C17E1F7F0E0CF16F0E7DF06D8
:107EF00018F0F601B7BEE89568D007B600FCFDCFD4
:107F0000A601A0E0B1E02C9130E011968C91119780
:107F100090E0982F8827822B932B1296FA010C0160
:107F200087BEE89511244E5F5F4FF1E0A038BF0790
:107F300051F7F601A7BEE89507B600FCFDCF97BE46
:107F4000E89526C08437B1F42ED02DD0F82E2BD052
:107F50003CD0F601EF2C8F010F5F1F4F84911BD097
:107F6000EA94F801C1F70894C11CD11CFA94CF0C13
:107F7000D11C0EC0853739F428D08EE10CD085E9AC
:107F80000AD08FE07ACF813511F488E018D01DD067
:107F900080E101D065CF982F8091C00085FFFCCF94
:107FA0009093C60008958091C00087FFFCCF809118
:107FB000C00084FD01C0A8958091C6000895E0E648
:107FC000F0E098E1908380830895EDDF803219F02E
:107FD00088E0F5DFFFCF84E1DECF1F93182FE3DFCA
:107FE0001150E9F7F2DF1F91089580E0E8DFEE27F6
:047FF000FF270994CA
:027FFE00040479
:00000001FF
